:020000040000FA
:100000000C9462000C948A000C948A000C948A0070
:100010000C948A000C948A000C948A000C948A0038
:100020000C948A000C948A000C948A000C948A0028
:100030000C948A000C948A000C948A000C948A0018
:100040000C949B040C948A000C940B050C94E5040E
:100050000C948A000C948A000C948A000C948A00F8
:100060000C948A000C948A000000000024002700F1
:100070002A0000000000250028002B0000000000DE
:1000800023002600290004040404040404040202DA
:100090000202020203030303030301020408102007
:1000A0004080010204081020010204081020000012
:1000B0000008000201000003040700000000000027
:1000C00000003D0511241FBECFEFD8E0DEBFCDBF3D
:1000D00011E0A0E0B1E0ECE9F2E102C005900D9280
:1000E000A236B107D9F722E0A2E6B1E001C01D9225
:1000F000AF31B207E1F710E0C2E6D0E004C02197CB
:10010000FE010E944609C136D107C9F70E94770552
:100110000C944C090C940000833081F028F4813059
:1001200099F08230A9F008958730A9F08830C9F09D
:100130008430B1F4809180008F7D03C08091800075
:100140008F7780938000089584B58F7784BD08955C
:1001500084B58F7DFBCF8091B0008F778093B00006
:1001600008958091B0008F7DF9CFCF93DF93282F32
:1001700030E0F901E255FF4F8491F901E656FF4F57
:10018000D491F901EA57FF4FC491CC23A1F081111A
:100190000E948C00EC2FF0E0EE0FFF1FE458FF4FA1
:1001A000A591B491EC91ED2381E090E009F480E019
:1001B000DF91CF91089580E090E0FACFCF93DF9365
:1001C000809113020E94B500892BD1F7809115020E
:1001D0000E94B500EC01809113020E94B500892BAA
:1001E000D1F3CE01DF91CF9108951F93CF93DF9389
:1001F000282F30E0F901E255FF4F8491F901E656CE
:10020000FF4FD491F901EA57FF4FC491CC23A9F0D5
:10021000162F81110E948C00EC2FF0E0EE0FFF1FD3
:10022000EE58FF4FA591B4918FB7F894EC9111114E
:1002300008C0D095DE23DC938FBFDF91CF911F9153
:100240000895DE2BF8CFCF93DF9390E0FC01E656C4
:10025000FF4F24918A579F4FFC0184918823D1F04E
:1002600090E0880F991FFC01E859FF4FA591B491C8
:10027000FC01EE58FF4FC591D49161110EC09FB79C
:10028000F8948C91E22FE0958E238C932881E223C1
:10029000E8839FBFDF91CF9108958FB7F894EC91D9
:1002A000E22BEC938FBFF6CFCF93C82F61E00E9473
:1002B000230160E08C2FCF910C94F500CF93C82FD1
:1002C00060E00E94230161E08C2FCF910C94F50037
:1002D000CF92DF92EF92FF920F931F93CF93DF9312
:1002E0008C018FB7F894C0907101D0907201E090AA
:1002F0007301F09074018FBF8091150290911602E6
:100300000E945E0180911302909114020E945E018E
:10031000C3ECD0E0CE010197F1F7809113029091E8
:1003200014020E9454012197F1F7809115029091D7
:1003300016020E94540180911302909114020E94AF
:100340005E01809113020E94B500892B31F12FB715
:10035000F8948091710190917201A0917301B09114
:1003600074012FBF8C199D09AE09BF098436910510
:10037000A105B10530F380911502909116020E94FB
:100380005E0181E080931202DF91CF911F910F9166
:10039000FF90EF90DF90CF900895D8E0C1E080917A
:1003A00015029091160200FF4DC00E945E018091DF
:1003B00013020E94B500892BD1F3809113020E9491
:1003C000B500892BD1F7202F2170822F8C2715950E
:1003D0000795D150A9F580911502909116022C171E
:1003E000A1F10E945E01809113020E94B500892B49
:1003F000D1F3809113020E94B500892BD1F780912F
:100400001502909116020E945E01809115020E94D1
:10041000B500892BD1F7809113020E94B500892B7A
:10042000D1F7809113020E94B500892B31F480919D
:1004300015020E94B500892BA1F310921202A4CFDD
:10044000C82FADCF0E945401B2CF0E945401CBCF30
:10045000CF92DF92EF92FF920F931F93CF938FB7BC
:10046000F894C0907101D0907201E0907301F09007
:1004700074018FBF80911302909114020E945E015B
:1004800080911502909116020E945E0180911302E4
:100490000E94B5008C01892B09F12FB7F894809147
:1004A000710190917201A0917301B09174012FBFFD
:1004B0008C199D09AE09BF0989359240A105B10586
:1004C00028F381E080931202C0E08C2FCF911F911E
:1004D0000F91FF90EF90DF90CF90089580911302DD
:1004E0000E94B500892BD1F3C0E0C12CD12C76013C
:1004F000C3940E94DE00B701A601002E04C0440F81
:10050000551F661F771F0A94D2F7892B69F0C42BF9
:100510000F5F1F4F0830110561F70E94DE000E9437
:10052000DE0010921202D1CF4095C423F1CF82EFAA
:1005300090E00E9468010E9428020C942802CF9348
:10054000DF93D82F83EF90E00E9468010E94280279
:10055000C82F8D2F90E00E9468010E9428028A3FD8
:1005600031F4CA3F21F48C2FDF91CF910895C0E080
:10057000FACFCF93DF93D82F88EE90E00E946801E6
:100580000E942802C82F8D2F90E00E9468010E94CF
:1005900028028A3F31F4CA3F21F48C2FDF91CF919A
:1005A0000895C0E0FACF3FB7F89480916D01909123
:1005B0006E01A0916F01B091700126B5A89B05C096
:1005C0002F3F19F00196A11DB11D3FBFBA2FA92FD2
:1005D000982F8827BC01CD01620F711D811D911DCF
:1005E00042E0660F771F881F991F4A95D1F708953B
:1005F0008F929F92AF92BF92CF92DF92EF92FF9233
:100600004B015C010E94D3026B017C010E94D3026A
:100610006C197D098E099F09683E7340810591051B
:10062000A8F321E0821A9108A108B10888EEC80E4B
:1006300083E0D81EE11CF11C81149104A104B104D3
:1006400029F7FF90EF90DF90CF90BF90AF909F90F1
:100650008F900895AF92BF92CF92DF92EF92FF9268
:100660000F931F93CF93DF936C017B018B01040FDA
:10067000151FEB015E01AE18BF08C017D10759F076
:100680006991D601ED91FC910190F081E02DC601B8
:100690000995892B79F7C501DF91CF911F910F91B2
:1006A000FF90EF90DF90CF90BF90AF900895FC0146
:1006B000538D448D252F30E0842F90E0821B930BC7
:1006C000541710F0CF96089501970895FC01918D6D
:1006D000828D981761F0A28DAE0FBF2FB11D5D9670
:1006E0008C91928D9F5F9F73928F90E008958FEF12
:1006F0009FEF0895FC01918D828D981731F0828DC6
:10070000E80FF11D858D90E008958FEF9FEF08951C
:10071000FC01918D228D892F90E0805C9F4F821B80
:1007200091098F739927089585E791E00E948803C6
:1007300021E0892B09F420E0822F089580E090E0E9
:10074000892B29F00E94940381110C9400000895D4
:10075000FC01A48DA80FB92FB11DA35ABF4F2C9136
:10076000848D90E001968F739927848FA689B7892D
:100770002C93A089B1898C91837080648C93938D24
:10078000848D981306C00288F389E02D80818F7DC7
:1007900080830895EF92FF920F931F93CF93DF937F
:1007A000EC0181E0888F9B8D8C8D98131AC0E889AD
:1007B000F989808185FF15C09FB7F894EE89FF897C
:1007C0006083E889F98980818370806480839FBF1A
:1007D00081E090E0DF91CF911F910F91FF90EF901A
:1007E0000895F62E0B8D10E00F5F1F4F0F7311272A
:1007F000E02E8C8D8E110CC00FB607FCFACFE88965
:10080000F989808185FFF5CFCE010E94A803F1CF41
:10081000EB8DEC0FFD2FF11DE35AFF4FF0829FB7D8
:10082000F8940B8FEA89FB8980818062CFCFCF93C8
:10083000DF93EC01888D8823B9F0AA89BB89E88908
:10084000F9898C9185FD03C0808186FD0DC00FB6AE
:1008500007FCF7CF8C9185FFF2CF808185FFEDCF2C
:10086000CE010E94A803E9CFDF91CF910895FC014A
:1008700001900020E9F73197AF01481B590BBC01EB
:1008800085E791E00C942A038F929F92AF92BF92DA
:100890000F931F93CF93DF93CDB7DEB7A1970FB61A
:1008A000F894DEBF0FBECDBF19A2423008F44AE073
:1008B0008E010F5D1F4F842E912CB12CA12CA50110
:1008C00094010E942409E62FB901CA01EA30F4F428
:1008D000E05DD801EE938D01232B242B252B79F796
:1008E00090E080E0109719F0CD010E943704A196A6
:1008F0000FB6F894DEBF0FBECDBFDF91CF911F9131
:100900000F91BF90AF909F908F900895E95CE1CFD9
:10091000CF93DF93682F70E090E080E04AE00E9480
:100920004404EC0186E191E00E9437048C0F9D1F86
:10093000DF91CF9108951F920F920FB60F9211245D
:100940002F933F938F939F93AF93BF9380917101A8
:1009500090917201A0917301B091740130916C017A
:1009600023E0230F2D3758F50196A11DB11D2093CB
:100970006C018093710190937201A0937301B09305
:10098000740180916D0190916E01A0916F01B09101
:1009900070010196A11DB11D80936D0190936E01B0
:1009A000A0936F01B0937001BF91AF919F918F9110
:1009B0003F912F910F900FBE0F901F90189526E832
:1009C000230F0296A11DB11DD2CF1F920F920FB619
:1009D0000F9211242F933F934F935F936F937F93C5
:1009E0008F939F93AF93BF93EF93FF9385E791E02E
:1009F0000E94A803FF91EF91BF91AF919F918F91BA
:100A00007F916F915F914F913F912F910F900FBE0A
:100A10000F901F9018951F920F920FB60F921124EE
:100A20002F938F939F93EF93FF93E0918501F09124
:100A300086018081E0918B01F0918C0182FD1BC0C9
:100A4000908180918E018F5F8F7320918F0182172B
:100A500041F0E0918E01F0E0EB58FE4F958F8093CE
:100A60008E01FF91EF919F918F912F910F900FBE6B
:100A70000F901F9018958081F4CFE5E7F1E0138285
:100A8000128288EE93E0A0E0B0E084839583A68391
:100A9000B78388E091E09183808385EC90E095872F
:100AA000848784EC90E09787868780EC90E0918B38
:100AB000808B81EC90E0938B828B82EC90E0958B25
:100AC000848B86EC90E0978B868B118E128E138E22
:100AD000148EE2E1F2E0108283E190E09283818360
:100AE00082E190E09483838314861582089578943C
:100AF00084B5826084BD84B5816084BD85B5826023
:100B000085BD85B5816085BD80916E0081608093D3
:100B10006E0010928100809181008260809381003C
:100B2000809181008160809381008091800081604C
:100B3000809380008091B10084608093B1008091A7
:100B4000B00081608093B00080917A0084608093CF
:100B50007A0080917A00826080937A0080917A0096
:100B6000816080937A0080917A00806880937A0017
:100B70001092C1000FB6F894A8958091600088612A
:100B800080936000109260000FBEE0918501F091AB
:100B9000860182E08083E0918101F09182011082E0
:100BA000E0918301F0918401108210928D01E09117
:100BB0008901F0918A0186E08083E0918701F091BC
:100BC0008801808180618083E0918701F0918801B4
:100BD000808188608083E0918701F0918801808125
:100BE00080688083E0918701F091880180818F7D0A
:100BF000808390E080E00E940E098093620184303F
:100C000010F01092620181E090E00E940E09809342
:100C10006A01843010F010926A0161E083E00E9462
:100C2000230161E085E00E94230161E084E00E94ED
:100C3000230161E086E00E94230161E087E00E94D9
:100C4000230161E088E00E94230161E089E00E94C5
:100C5000230161E087E00E94F50061E088E00E94E6
:100C6000F50061E089E00E94F50061E08DE00E94FE
:100C7000F5000AE010E080911302909114020E94A6
:100C8000540180911502909116020E94540164E66D
:100C900070E080E090E00E94F80280911302909151
:100CA00014020E945E0180911502909116020E942A
:100CB0005E0164E670E080E090E00E94F8028FEF51
:100CC00090E00E9468010E9428028A3FD1F1CCEF97
:100CD000D0E00150110979F66E010D2E000CEE08DE
:100CE000FF08CA3FD10509F461C089E191E00E9483
:100CF000370440E1C701B6010E94440486E291E056
:100D00000E9437046091120270E090E080E04AE0B7
:100D10000E94440486E191E00E94370485E791E057
:100D20000E94170460E08DE00E94F50064EF71E01E
:100D300080E090E00E94F80261E08DE00E94F50002
:100D4000D0CF0E9428028A3A09F0C1CF0E9428021F
:100D500088EC0E949F028A3F09F0B9CF84E60E9486
:100D60009F028A3F09F0B3CF80E50E949F028A3F2D
:100D700009F0ADCF0E94970280931E0280E00E948E
:100D8000B9028A3F09F0A3CF86EE90E00E94680185
:100D90000E9428028A3F09F09ACF88EC0E949F02A5
:100DA0008A3F09F094CFCAEFD0E093CF80916201DF
:100DB0000E94B90288E291E00E9437040E949702E3
:100DC0000E9488048EE291E00E94370489EE90E050
:100DD0000E9468010E9428020E942802C82F0E94D7
:100DE00028020E9428028C2F0E94880486E391E04A
:100DF0000E94370489EE90E00E9468010E94280258
:100E00000E9428020E942802C82F0E9428028C2FCC
:100E10000E94880482E491E00E94370489EE90E009
:100E20000E9468010E9428020E9428020E94280253
:100E30000E9428020E94880488E491E00E943704FE
:100E400080916A010E94880483E591E00E94370442
:100E50008DE591E00E94370486E191E00E9437041D
:100E600085E791E00E94170460E08DE00E94F500A4
:100E70003324339490E0492E90E0592E0E9497023B
:100E800080911802809317028BEE90E00E94680117
:100E90000E9428028A3F31F50E942802C82F8093C1
:100EA00018020E94280290E0C4FD9F6F90931A02DE
:100EB00080931902C0911802C0720E94280290E02B
:100EC000C1119F6F90931C0280931B0280911E02A0
:100ED000882309F44CC10E94280283FF46C1806F19
:100EE00080931D02609118026095617087E00E94F6
:100EF000F5006091180266956170632588E00E9494
:100F0000F5006091180262FB662760F9632589E0AD
:100F10000E94F50080916B0190916A01981708F08A
:100F200029C12091190230911A023093690120934E
:100F3000680120911B0230911C02309367012093BD
:100F4000660110926B0120911D02022E000C330BE2
:100F500030936501209364018091630181112AC05F
:100F60008091180282FF26C08091620181110BC11D
:100F7000992309F40AC1915090936A01609162012A
:100F800090E080E00E9416096AE070E080E090E066
:100F90000E94F80260916A0181E090E00E941609C7
:100FA0006AE070E080E090E00E94F80280916201C7
:100FB0000E94B9028091180282FB882780F98093F1
:100FC00063018091680190916901892B39F48091C6
:100FD000660190916701892B09F40FC18090680127
:100FE0009090690180916801909169011816190625
:100FF0000CF4D5C08091680190916901919581951B
:101000009109909369018093680120916801309162
:10101000690180910201909103018217930744F4C2
:10102000809102019091030190936901809368017E
:101030008091660190916701292E221C2224221C96
:101040008091660190916701181619060CF4ACC0E6
:101050008091660190916701919581959109909396
:10106000670180936601209166013091670180914C
:101070000201909103018217930744F480910201C9
:10108000909103019093670180936601E09066015F
:10109000F09067010091680110916901A090000132
:1010A000B09001016E2CE01608F4602E6501CC0CA6
:1010B000DD1CCC0CDD1C85E0C81AD108D0E0C0E0F6
:1010C000712C1127FF24C615D7050CF096C082E0BD
:1010D000A816B10418F0C6010197F1F7C017D1079F
:1010E00064F497FC66C084E00E94B50061E0892B3F
:1010F00009F060E084E00E94F500CE15DF056CF495
:10110000222009F45FC083E00E94B50061E0892BD2
:1011100009F060E083E00E94F50082E0A816B104C7
:1011200018F0C6010197F1F7C017D10764F497FCD6
:1011300052C086E00E94B50061E0892B09F060E0B2
:1011400086E00E94F500CE15DF056CF4222009F43C
:101150004BC085E00E94B50061E0892B09F060E09A
:1011600085E00E94F5002196AECF8F70B9CE109227
:101170001D02B8CE109269011092680110926701A9
:1011800010926601E0CE833020F48F5F809362017D
:10119000F5CE1092620183E080936A01EFCE8091D8
:1011A0006801909169012DCF80916601909167014E
:1011B00056CF86E00E94B50061E0892B09F060E01F
:1011C00086E099CF85E00E94B50061E0892B09F0A7
:1011D00060E085E0A0CF84E00E94B50061E0892B4B
:1011E00009F060E084E0ADCF83E00E94B50061E0EB
:1011F000892B09F060E083E0B4CF80916B018F5FB1
:1012000080936B014114510409F438CE0E94940379
:10121000882309F433CE0E94000030CEF999FECF26
:1012200092BD81BDF89A992780B50895262FF99926
:10123000FECF1FBA92BD81BD20BD0FB6F894FA9AB9
:10124000F99A0FBE01960895A1E21A2EAA1BBB1BA4
:10125000FD010DC0AA1FBB1FEE1FFF1FA217B30782
:10126000E407F50720F0A21BB30BE40BF50B661F98
:10127000771F881F991F1A9469F76095709580955C
:1012800090959B01AC01BD01CF010895EE0FFF1FAA
:101290000590F491E02D0994F894FFCF03000A0023
:1012A00000000000CA032A035703170488036603DB
:1012B0007A030D0A004D4F5553455F4552524F5228
:1012C0003A003B00545950453A0053544154555349
:1012D0003A005245534F4C5554494F4E3A005241F3
:1012E00054453A004C4F4F505F534B49503A0046DB
:0E12F00049524D574152453A00342E3200000B
:107E0000112484B714BE81FFF0D085E080938100F7
:107E100082E08093C00088E18093C10086E0809377
:107E2000C20080E18093C4008EE0C9D0259A86E02C
:107E300020E33CEF91E0309385002093840096BBD3
:107E4000B09BFECF1D9AA8958150A9F7CC24DD24C4
:107E500088248394B5E0AB2EA1E19A2EF3E0BF2EE7
:107E6000A2D0813461F49FD0082FAFD0023811F036
:107E7000013811F484E001C083E08DD089C08234E0
:107E800011F484E103C0853419F485E0A6D080C0E4
:107E9000853579F488D0E82EFF2485D0082F10E0AE
:107EA000102F00270E291F29000F111F8ED06801E7
:107EB0006FC0863521F484E090D080E0DECF843638
:107EC00009F040C070D06FD0082F6DD080E0C81688
:107ED00080E7D80618F4F601B7BEE895C0E0D1E017
:107EE00062D089930C17E1F7F0E0CF16F0E7DF06D8
:107EF00018F0F601B7BEE89568D007B600FCFDCFD4
:107F0000A601A0E0B1E02C9130E011968C91119780
:107F100090E0982F8827822B932B1296FA010C0160
:107F200087BEE89511244E5F5F4FF1E0A038BF0790
:107F300051F7F601A7BEE89507B600FCFDCF97BE46
:107F4000E89526C08437B1F42ED02DD0F82E2BD052
:107F50003CD0F601EF2C8F010F5F1F4F84911BD097
:107F6000EA94F801C1F70894C11CD11CFA94CF0C13
:107F7000D11C0EC0853739F428D08EE10CD085E9AC
:107F80000AD08FE07ACF813511F488E018D01DD067
:107F900080E101D065CF982F8091C00085FFFCCF94
:107FA0009093C60008958091C00087FFFCCF809118
:107FB000C00084FD01C0A8958091C6000895E0E648
:107FC000F0E098E1908380830895EDDF803219F02E
:107FD00088E0F5DFFFCF84E1DECF1F93182FE3DFCA
:107FE0001150E9F7F2DF1F91089580E0E8DFEE27F6
:047FF000FF270994CA
:027FFE00040479
:00000001FF
